:03000000020006F5
:20005F00750869750901750A80750B7D750C01750D80750E8D750F0175108075119975125C
:07007F00017513800200036C
:0300030002008672
:20008600AE82AF83EE2508FBEF3509FCAD0A8B828C838DF0120117FB3395E0FDEE250BF988
:2000A600EF350CFAAC0D89828A838CF0120117F93395E0FCE92BFBEC3DFDEE250EF9EF3589
:2000C6000FFAAC1089828A838CF0120117F93395E0FCE92BFBEC3DFDEE2437F582EF3401E1
:2000E600F583E493FC3395E0FAEC2BFBEA3DFDEE2511FEEF3512FFAC138E828F838CF01271
:110106000117FE3395E0FFEE2BFBEF3D8B82F5832244
:20013700494E464F3A636F6D70696C65725F76657273696F6E5B30303030303030332E3046
:20015700303030303030352E30303030303030305D00494E464F3A636F6D70696C65725B0C
:20017700534443435D00494E464F3A706C6174666F726D5B5D00494E464F3A617263685B0C
:1B0197005D00494E464F3A6469616C6563745F64656661756C745B39305D004F
:06003500E478FFF6D8FD9F
:200013007900E94400601B7A009001B2780175A000E493F2A308B8000205A0D9F4DAF275E0
:02003300A0FF2C
:20003B007800E84400600A790175A000E4F309D8FC7800E84400600C7900900001E4F0A3C3
:04005B00D8FCD9FAFA
:0D000600758116120133E5826003020003CC
:1C01170020F71430F6148883A88220F507E6A88375830022E280F7E49322E022F7
:0401330075820022AF
:00000001FF
